{
  "contractName": "ExampleContract",
  "abi": [
    {
      "constant": true,
      "inputs": [
        {
          "name": "",
          "type": "uint256"
        }
      ],
      "name": "numberMapping",
      "outputs": [
        {
          "name": "",
          "type": "uint256"
        }
      ],
      "payable": false,
      "stateMutability": "view",
      "type": "function",
      "signature": "0xe6cb9e19"
    },
    {
      "constant": true,
      "inputs": [],
      "name": "getExample",
      "outputs": [
        {
          "name": "",
          "type": "string"
        }
      ],
      "payable": false,
      "stateMutability": "pure",
      "type": "function",
      "signature": "0xbfdb629c"
    },
    {
      "constant": false,
      "inputs": [
        {
          "name": "key",
          "type": "uint256"
        },
        {
          "name": "value",
          "type": "uint256"
        }
      ],
      "name": "writeToMapping",
      "outputs": [],
      "payable": false,
      "stateMutability": "nonpayable",
      "type": "function",
      "signature": "0x26f48af2"
    }
  ],
  "bytecode": "0x608060405234801561001057600080fd5b5061029d806100206000396000f300608060405260043610610057576000357c0100000000000000000000000000000000000000000000000000000000900463ffffffff16806326f48af21461005c578063bfdb629c14610093578063e6cb9e1914610123575b600080fd5b34801561006857600080fd5b506100916004803603810190808035906020019092919080359060200190929190505050610164565b005b34801561009f57600080fd5b506100a861021c565b6040518080602001828103825283818151815260200191508051906020019080838360005b838110156100e85780820151818401526020810190506100cd565b50505050905090810190601f1680156101155780820380516001836020036101000a031916815260200191505b509250505060405180910390f35b34801561012f57600080fd5b5061014e60048036038101908080359060200190929190505050610259565b6040518082815260200191505060405180910390f35b602a821415610201576040517f08c379a000000000000000000000000000000000000000000000000000000000815260040180806020018281038252602c8152602001807f746865206b657920746f2074686520756e69766572736520646f6573206e6f7481526020017f2062656c6f6e672068657265000000000000000000000000000000000000000081525060400191505060405180910390fd5b80600080848152602001908152602001600020819055505050565b60606040805190810160405280600781526020017f4578616d706c6500000000000000000000000000000000000000000000000000815250905090565b600060205280600052604060002060009150905054815600a165627a7a7230582035d3f401010e28c0f3192fc45ffbf3064fc687339a541611b9ae9a145529be550029",
  "source": "pragma solidity ^0.4.24;\n\ncontract ExampleContract{\n    mapping(uint256=>uint256) public numberMapping;\n    //pure means ready only\n    function getExample() public pure returns (string){\n        return \"Example\";\n    }\n\n    function writeToMapping(uint256 key, uint256 value) public{\n        if(key==42){\n            revert(\"the key to the universe does not belong here\");// it stops to using all your gas\n            // error protection\n        }\n        numberMapping[key]=value;\n    }\n}",
  "sourcePath": "/Users/omarfaroque/trufflecon/contracts/ExampleContract.sol",
  "compiler": {
    "name": "solc",
    "version": "0.4.25+commit.59dbf8f1.Emscripten.clang"
  },
  "schemaVersion": "3.0.0-beta.1",
  "updatedAt": "2018-10-05T17:01:49.556Z"
}